S02B000054656D707261747572655F53656E736F725F776974685F6175746F5F74726967657272696E672E7362
S11300000C942A000C9447000C9447000C9447006D
S11300100C94ED040C9447000C9447000C949F043A
S11300200C94C6040C9447000C9478040C94470078
S11300300C9447000C9447000C9447000C94470020
S11300400C9470020C9447000C9447000C944700E5
S11300500C94470011241FBECFE5D8E0DEBFCDBF0E
S113006010E0A0E6B0E0EAE0FDE002C005900D92E9
S1130070A038B107D9F720E0A0E8B0E001C01D9294
S1130080A739B207E1F70E944A000C9483060C9446
S11300900000089583E690E00E945D0140E050E096
S11300A069E470E080E690E00E94EA0185E790E070
S11300B00E948F0340E050E064E87EE181E00E940A
S11300C0E6030E94BA0089E790E00E94060140E03E
S11300D050E069E470E080E690E00E94EA016091FB
S11300E0600070E080E090E00E94B70521ED32E20C
S11300F043E050E40E9414050E948605DC01CB0114
S113010045E061E00E943701E2CFCF93C82FD99830
S1130110DA98DB9A40E050E062E070E080E00E9410
S1130120E6038BB38F709C2F907F892B8BBBDB985E
S113013040E050E062E070E080E00E94E603DB9A79
S113014040E050E062E070E080E00E94E6038BB3A0
S1130150282F2F7030E1C39FC0011124822B8BBB49
S1130160DB9840E050E062E070E080E00E94E6034B
S1130170CF91089581E790E00E948F038AB3806F46
S11301808ABBD19AD29AD39A82E00E94850088E2EF
S11301900E9485008CE00E94850081E00E94850019
S11301A00895CF93C82FD99ADA98DB9A40E050E0AB
S11301B062E070E080E00E94E6038BB38F709C2FB6
S11301C0907F892B8BBBDB9840E050E062E070E0CD
S11301D080E00E94E603DB9A40E050E062E070E0D9
S11301E080E00E94E6038BB3282F2F7030E1C39F79
S11301F0C0011124822B8BBBDB9840E050E062E00D
S113020070E080E00E94E603CF9108950F931F935E
S1130210CF93FC018081882359F08F01C0E00E94B4
S1130220D100CF5FF801EC0FF11D80818111F7CF70
S1130230CF911F910F910895813019F0823021F0F0
S113024005C090E8960F02C090EC960F892F0E948B
S113025085000895CF93DF93EC01862F642F0E94CD
S11302601C01CE010E940601DF91CF9108950F93E6
S11302701F93CF93DF93CDB7DEB7A8970FB6F8944B
S1130280DEBF0FBECDBF162F042F4AE050E0BE01E3
S11302906F5F7F4F0E944306402F612FCE0101966E
S11302A00E942A01A8960FB6F894DEBF0FBECDBFF8
S11302B0DF91CF911F910F910895FC01892B09F4CF
S11302C083C03798379A808191818830910520F0D6
S11302D081E08093850008C096B18095892386B912
S11302E097B18081892B87B982819381813C910563
S11302F020F082E08093850008C096B18095892320
S113030086B997B18281892B87B9848195810797B2
S113031020F083E08093850007C086B1887F86B98A
S113032096B18481892B86B986819781853191051F
S113033019F43598359A05C0469719F085E08093ED
S1130340850080859185823E910520F086E080932A
S113035085000BC0813E910541F090B780958923BB
S113036080BF90B78085892B80BF8285938580323A
S1130370910531F43D983D9A80E28093830009C051
S1130380819721F481E28093830003C087E0809306
S11303908500848595859C012252310924303105DC
S11303A020F08AE08093850012C08232910519F012
S11303B08532910531F4809384008FB780688FBFB4
S11303C006C08093840003C089E0809385008091F7
S11303D085000895FC019091850091117BC0809166
S11303E084008332E9F4369A349BFECF80918300F3
S11303F0803279F485B124B190E0880F991F880F79
S1130400991F2295269526952370822B91838083AC
S113041064C084B125B190E0922B918380835DC048
S1130420843271F180916100813029F43398339AD8
S1130430369A109261006115710529F0709382005B
S11304406093810003C082E0809362008091830006
S1130450803279F485B124B190E0880F991F880F18
S1130460991F2295269526952370822B918380834C
S113047034C084B125B190E0922B918380832DC048
S113048080918000882319F0813031F026C0369A9B
S113049081E08093800021C080918300803279F4D0
S11304A085B124B190E0880F991F880F991F229578
S11304B0269526952370822B9183808306C084B170
S11304C025B190E0922B9183808310928000FA01F1
S11304D0108203C08FE180936200809162000895CE
S11304E01F920F920FB60F9211242F933F934F93A5
S11304F05F936F937F938F939F93AF93BF93EF9388
S1130500FF938091810090918200892B89F0E09182
S11305108100F0918200099561E070E08AE190E049
S11305200E94A9028AE190E00E943F0384E088BF10
S1130530FF91EF91BF91AF919F918F917F916F91B7
S11305405F914F913F912F910F900FBE0F901F908D
S11305501895803208F08FC0982F977086958695ED
S113056086958F5B823451F118F4813441F085C053
S1130570833409F442C0843409F45EC07EC061113E
S11305800FC04AB321E030E0B90102C0660F771F03
S11305909A95E2F7CB01809584238ABB80E0089585
S11305A04AB321E030E0B90102C0660F771F9A9583
S11305B0E2F7CB01842B8ABB80E0089561110FC060
S11305C047B321E030E0B90102C0660F771F9A9566
S11305D0E2F7CB018095842387BB80E0089547B37D
S11305E021E030E0B90102C0660F771F9A95E2F767
S11305F0CB01842B87BB80E0089561110FC044B305
S113060021E030E0B90102C0660F771F9A95E2F746
S1130610CB018095842384BB80E0089544B321E01A
S113062030E0B90102C0660F771F9A95E2F7CB015B
S1130630842B84BB80E0089561110FC041B321E095
S113064030E0B90102C0660F771F9A95E2F7CB013B
S11306508095842381BB81E0089541B321E030E09B
S1130660B90102C0660F771F9A95E2F7CB01842B7C
S113067081BB81E0089581E0089581E0089580328E
S113068008F049C0982F97708695869586958F5B5C
S11306908234B9F018F4813431F03FC08334F9F076
S11306A0843459F13AC04BB321E030E0B90102C0BF
S11306B0660F771F9A95E2F7CB0184278BBB80E006
S11306C0089548B321E030E0B90102C0660F771FF6
S11306D09A95E2F7CB01842788BB80E0089545B35F
S11306E021E030E0B90102C0660F771F9A95E2F766
S11306F0CB01842785BB80E0089542B321E030E03C
S1130700B90102C0660F771F9A95E2F7CB018427DF
S113071082BB80E0089581E0089581E00895FC01A2
S1130720892B09F447C09081292F30E0D901A257C1
S1130730BF4F8C91813009F448C09330E8F5828131
S11307408330E0F543814230D8F551815830D0F5FB
S1130750D901A257BF4F61E06C93D901AF56BF4F87
S11307608C93D901AC56BF4F4C938130D9F491305E
S113077061F018F0923099F0089583B7886083BFD0
S113078093B78181892B83BF0DC08FB58FBD8EB583
S113079088608EBD9EB58181892B8EBD03C085B5D1
S11307A0582B55BD8381813079F48FB780688FBF12
S11307B080E0089580E0089581E0089581E008953F
S11307C081E0089581E0089580E00895882321F070
S11307D0813009F47DC082C090919100913009F478
S11307E05CC091112CC083B7826083BF8091940058
S11307F0811114C06115710509F479C020E030E05D
S113080041E098B7926098BF4CBF08B601FEFDCF97
S11308102F5F3F4F62177307A1F70895813009F0E6
S11308205FC088B7826088BF81E08CBF89B782606F
S113083089BF50938D0040938C00892F0895923086
S113084009F050C083B7836083BF80919400811105
S113085014C06115710509F44AC020E030E04DE789
S113086098B7926098BF4CBF08B601FEFDCF2F5FCA
S11308703F4F62177307A1F708958130A9F588B730
S1130880826088BF8DE78CBF89B7826089BF50932F
S11308908D0040938C0080E0089580919400811134
S11308A008C098B7926098BF6CBF08B601FEFDCF30
S11308B008958130D9F488B7826088BF6CBF89B746
S11308C0826089BF50938D0040938C0080E008952E
S11308D07BBD6ABD1DBC1CBC80E0089581E0089509
S11308E0892F089580E0089580E0089580E00895B8
S11308F01F920F920FB60F9211242F933F934F9391
S11309005F936F937F938F939F93AF93BF93EF9373
S1130910FF93E0918C00F0918D000995FF91EF9188
S1130920BF91AF919F918F917F916F915F914F9103
S11309303F912F910F900FBE0F901F9018951F920B
S11309400F920FB60F9211242F933F934F935F93FF
S11309506F937F938F939F93AF93BF93EF93FF9383
S1130960E0918A00F0918B000995FF91EF91BF917E
S1130970AF919F918F917F916F915F914F913F9133
S11309802F910F900FBE0F901F9018951F920F92EA
S11309900FB60F9211242F933F934F935F936F934E
S11309A07F938F939F93AF93BF93EF93FF93E091C4
S11309B08800F09189000995FF91EF91BF91AF9163
S11309C09F918F917F916F915F914F913F912F9163
S11309D00F900FBE0F901F9018951F920F920FB695
S11309E00F9211242F933F934F935F936F937F93B1
S11309F08F939F93AF93BF93EF93FF93E091860000
S1130A00F09187000995FF91EF91BF91AF919F916C
S1130A108F917F916F915F914F913F912F910F90A3
S1130A200FBE0F901F9018950E9428050C9409067C
S1130A300E94020658F00E94FB0540F029F45F3F33
S1130A4029F00C94F20551110C943D060C94F80510
S1130A500E941A0668F39923B1F3552391F3951B69
S1130A60550BBB27AA2762177307840738F09F5FCB
S1130A705F4F220F331F441FAA1FA9F335D00E2E38
S1130A803AF0E0E832D091505040E695001CCAF7A5
S1130A902BD0FE2F29D0660F771F881FBB1F261768
S1130AA037074807AB07B0E809F0BB0B802DBF013F
S1130AB0FF2793585F4F3AF09E3F510578F00C940E
S1130AC0F2050C943D065F3FE4F3983ED4F386951B
S1130AD077956795B795F7959F5FC9F7880F911D2F
S1130AE09695879597F90895E1E0660F771F881F1B
S1130AF0BB1F621773078407BA0720F0621B730BCE
S1130B00840BBA0BEE1F88F7E09508950E94220625
S1130B1088F09F5798F0B92F9927B751B0F0E1F0BA
S1130B20660F771F881F991F1AF0BA95C9F714C06A
S1130B30B13091F00E943C06B1E008950C943C065B
S1130B40672F782F8827B85F39F0B93FCCF38695A3
S1130B5077956795B395D9F73EF490958095709500
S1130B6061957F4F8F4F9F4F0895E89409C097FB7D
S1130B703EF490958095709561957F4F8F4F9F4F70
S1130B809923A9F0F92F96E9BB279395F6958795B4
S1130B9077956795B795F111F8CFFAF4BB0F11F477
S1130BA060FF1BC06F5F7F4F8F4F9F4F16C088231E
S1130BB011F096E911C0772321F09EE8872F762F54
S1130BC005C0662371F096E8862F70E060E02AF095
S1130BD09A95660F771F881FDAF7880F9695879581
S1130BE097F9089597F99F6780E870E060E00895A9
S1130BF09FEF80EC089500240A9416161706180631
S1130C000906089500240A9412161306140605060C
S1130C100895092E0394000C11F4882352F0BB0F9D
S1130C2040F4BF2B11F460FF04C06F5F7F4F8F4F00
S1130C309F4F089557FD9058440F551F59F05F3F3B
S1130C4071F04795880F97FB991F61F09F3F79F0EA
S1130C5087950895121613061406551FF2CF46956C
S1130C60F1DF08C0161617061806991FF1CF8695EE
S1130C707105610508940895E894BB2766277727D2
S1130C80CB0197F908954532510520F4423010F014
S1130C900C944E06FB011082CB010895BB274A3009
S1130CA031F4992322F4BDE2909581959F4F0C94E1
S1130CB05A06BB27FB015527AA27880F991FAA1F8D
S1130CC0A41710F0A41B83955051B9F7A05DAA3363
S1130CD008F0A95DA193009779F7B111B19311922E
S1130CE0CB010C947306DC01FC01672F719177230F
S1130CF0E1F7329704C07C916D9370836291AE17D3
S10D0D00BF07C8F30895F894FFCF6D
S1130D0A0C011E0000400006001500A00021002569
S1130D1A00000002000105010154454D503D000048
S9030000FC
