S02B000054656D707261747572655F53656E736F725F776974685F6175746F5F74726967657272696E672E7362
S11300000C942A000C9447000C9447000C9447006D
S11300100C94F1040C9447000C9447000C94A30432
S11300200C94CA040C9447000C947C040C94470070
S11300300C9447000C9447000C9447000C94470020
S11300400C9474020C9447000C9447000C944700E1
S11300500C94470011241FBECFE5D8E0DEBFCDBF0E
S113006010E0A0E6B0E0E8E0FDE002C005900D92EB
S1130070AE37B107D9F720E0AEE7B0E001C01D927A
S1130080A539B207E1F70E9449000C9482060C944A
S11300900000CF93DF9300D0CDB7DEB71A82198268
S11300A00E943B010E94980087E790E00E94E400D0
S11300B0CE0101960E944E0145E061E089819A815A
S11300C00E941501F5CFCF93C82FD998DA98DB9AFF
S11300D040E050E062E070E080E00E94EA038BB30D
S11300E08F709C2F907F892B8BBBDB9840E050E076
S11300F062E070E080E00E94EA03DB9A40E050E0B6
S113010062E070E080E00E94EA038BB3282F2F7036
S113011030E1C39FC0011124822B8BBBDB9840E0EC
S113012050E062E070E080E00E94EA03CF9108951D
S11301308FE690E00E9493038AB3806F8ABBD19AC2
S1130140D29AD39A82E00E94630088E20E946300FC
S11301508CE00E94630081E00E9463000895CF93C5
S1130160C82FD99ADA98DB9A40E050E062E070E058
S113017080E00E94EA038BB38F709C2F907F892BC1
S11301808BBBDB9840E050E062E070E080E00E94CE
S1130190EA03DB9A40E050E062E070E080E00E9415
S11301A0EA038BB3282F2F7030E1C39FC0011124C1
S11301B0822B8BBBDB9840E050E062E070E080E093
S11301C00E94EA03CF9108950F931F93CF93FC01EC
S11301D08081882359F08F01C0E00E94AF00CF5F77
S11301E0F801EC0FF11D80818111F7CFCF911F91A0
S11301F00F910895813019F0823021F005C090E804
S1130200960F02C090EC960F892F0E946300089508
S1130210CF93DF93EC01862F642F0E94FA00CE0166
S11302200E94E400DF91CF9108950F931F93CF9321
S1130230DF93CDB7DEB7A8970FB6F894DEBF0FBE35
S1130240CDBF162F042F4AE050E0BE016F5F7F4FF1
S11302500E944206402F612FCE0101960E940801A0
S1130260A8960FB6F894DEBF0FBECDBFDF91CF9135
S11302701F910F91089581E690E00E946A013398DE
S1130280339A369A83E790E00E94930340E050E06B
S113029064E87EE181E00E94EA030895CF93DF934E
S11302A0EC0140E050E060E070E00E94F7016881FA
S11302B0798180E090E00E94470523E23BED49EF1D
S11302C05EE30E94AD050E94180579836883DF917F
S11302D0CF910895FC01892B09F483C03798379A8C
S11302E0808191818830910520F081E080938300A2
S11302F008C096B18095892386B997B18081892BEE
S113030087B982819381813C910520F082E08093BA
S1130310830008C096B18095892386B997B18281FC
S1130320892B87B984819581079720F083E0809396
S1130330830007C086B1887F86B996B18481892BF2
S113034086B9868197818531910519F43598359A56
S113035005C0469719F085E08093830080859185D8
S1130360823E910520F086E0809383000BC0813E9D
S1130370910541F090B78095892380BF90B780851F
S1130380892B80BF828593858032910531F43D9815
S11303903D9A80E28093810009C0819721F481E233
S11303A08093810003C087E08093830084859585D2
S11303B09C01225231092430310520F08AE08093D7
S11303C0830012C08232910519F08532910531F40F
S11303D0809382008FB780688FBF06C080938200AD
S11303E003C089E080938300809183000895FC0119
S11303F090918300911172C0809182008332E9F45C
S1130400369A349BFECF80918100803279F485B195
S113041024B190E0880F991F880F991F2295269583
S113042026952370822B918380835BC084B125B190
S113043090E0922B9183808354C0843229F161151A
S1130440710529F07093800060937F0003C082E0FF
S11304508093600080918100803279F485B124B169
S113046090E0880F991F880F991F2295269526954D
S11304702370822B9183808334C084B125B190E0B2
S1130480922B918380832DC080917E00882319F064
S1130490813031F026C0369A81E080937E0021C0FD
S11304A080918100803279F485B124B190E0880F85
S11304B0991F880F991F2295269526952370822BC4
S11304C09183808306C084B125B190E0922B9183FF
S11304D0808310927E00FA01108203C08FE1809322
S11304E060008091600008951F920F920FB60F92E2
S11304F011242F933F934F935F936F937F938F9325
S11305009F93AF93BF93EF93FF9361E070E08AE111
S113051090E00E94AD028AE190E00E94430388E0EB
S113052088BF80917F0090918000892B29F0E09111
S11305307F00F09180000995FF91EF91BF91AF91F9
S11305409F918F917F916F915F914F913F912F91E7
S11305500F900FBE0F901F901895803208F08FC037
S1130560982F97708695869586958F5B823451F186
S113057018F4813441F085C0833409F442C08434D2
S113058009F45EC07EC061110FC04AB321E030E0BF
S1130590B90102C0660F771F9A95E2F7CB018095E7
S11305A084238ABB80E008954AB321E030E0B90196
S11305B002C0660F771F9A95E2F7CB01842B8ABBA2
S11305C080E0089561110FC047B321E030E0B90124
S11305D002C0660F771F9A95E2F7CB0180958423BA
S11305E087BB80E0089547B321E030E0B90102C041
S11305F0660F771F9A95E2F7CB01842B87BB80E0C7
S1130600089561110FC044B321E030E0B90102C084
S1130610660F771F9A95E2F7CB018095842384BBFC
S113062080E0089544B321E030E0B90102C0660FD0
S1130630771F9A95E2F7CB01842B84BB80E0089561
S113064061110FC041B321E030E0B90102C0660F6F
S1130650771F9A95E2F7CB018095842381BB81E0D3
S1130660089541B321E030E0B90102C0660F771F5D
S11306709A95E2F7CB01842B81BB81E0089581E058
S1130680089581E00895803208F049C0982F97704A
S11306908695869586958F5B8234B9F018F48134FB
S11306A031F03FC08334F9F0843459F13AC04BB38C
S11306B021E030E0B90102C0660F771F9A95E2F796
S11306C0CB0184278BBB80E0089548B321E030E060
S11306D0B90102C0660F771F9A95E2F7CB01842710
S11306E088BB80E0089545B321E030E0B90102C041
S11306F0660F771F9A95E2F7CB01842785BB80E0CC
S1130700089542B321E030E0B90102C0660F771FBB
S11307109A95E2F7CB01842782BB80E0089581E0BB
S1130720089581E00895FC01892B09F447C0908164
S1130730292F30E0D901A457BF4F8C91813009F49F
S113074048C09330E8F582818330E0F5438142303C
S1130750D8F551815830D0F5D901A457BF4F61E085
S11307606C93D901A157BF4F8C93D901AE56BF4F9B
S11307704C938130D9F4913061F018F0923099F0B3
S1130780089583B7886083BF93B78181892B83BF22
S11307900DC08FB58FBD8EB588608EBD9EB581812D
S11307A0892B8EBD03C085B5582B55BD83818130FF
S11307B079F48FB780688FBF80E0089580E0089552
S11307C081E0089581E0089581E0089581E008952D
S11307D080E00895882321F0813009F47DC082C02F
S11307E090918F00913009F45CC091112CC083B7B3
S11307F0826083BF80919200811114C061157105DC
S113080009F479C020E030E041E098B7926098BFE5
S11308104CBF08B601FEFDCF2F5F3F4F6217730731
S1130820A1F70895813009F05FC088B7826088BF5E
S113083081E08CBF89B7826089BF50938B0040935D
S11308408A00892F0895923009F050C083B78360DD
S113085083BF80919200811114C06115710509F460
S11308604AC020E030E04DE798B7926098BF4CBF93
S113087008B601FEFDCF2F5F3F4F62177307A1F744
S113088008958130A9F588B7826088BF8DE78CBF51
S113089089B7826089BF50938B0040938A0080E0BF
S11308A0089580919200811108C098B7926098BF12
S11308B06CBF08B601FEFDCF08958130D9F488B726
S11308C0826088BF6CBF89B7826089BF50938B00F8
S11308D040938A0080E008957BBD6ABD79BD68BD00
S11308E080E0089581E00895892F089580E00895B7
S11308F080E0089580E008951F920F920FB60F9242
S113090011242F933F934F935F936F937F938F9310
S11309109F93AF93BF93EF93FF93E0918A00F0917D
S11309208B000995FF91EF91BF91AF919F918F91AA
S11309307F916F915F914F913F912F910F900FBED7
S11309400F901F9018951F920F920FB60F921124BB
S11309502F933F934F935F936F937F938F939F93C3
S1130960AF93BF93EF93FF93E0918800F0918900D8
S11309700995FF91EF91BF91AF919F918F917F91D5
S11309806F915F914F913F912F910F900FBE0F90F8
S11309901F9018951F920F920FB60F9211242F9348
S11309A03F934F935F936F937F938F939F93AF93F3
S11309B0BF93EF93FF93E0918600F0918700099530
S11309C0FF91EF91BF91AF919F918F917F916F9123
S11309D05F914F913F912F910F900FBE0F901F90F9
S11309E018951F920F920FB60F9211242F933F93D5
S11309F04F935F936F937F938F939F93AF93BF9323
S1130A00EF93FF93E0918400F09185000995FF91A5
S1130A10EF91BF91AF919F918F917F916F915F9172
S1130A204F913F912F910F900FBE0F901F901895EB
S1130A300E948C0588F09F5798F0B92F9927B751D9
S1130A40B0F0E1F0660F771F881F991F1AF0BA956E
S1130A50C9F714C0B13091F00E94A605B1E0089521
S1130A600C94A605672F782F8827B85F39F0B93F13
S1130A70CCF3869577956795B395D9F73EF4909521
S1130A808095709561957F4F8F4F9F4F0895E8949F
S1130A9009C097FB3EF490958095709561957F4FC2
S1130AA08F4F9F4F9923A9F0F92F96E9BB27939570
S1130AB0F695879577956795B795F111F8CFFAF480
S1130AC0BB0F11F460FF1BC06F5F7F4F8F4F9F4FB1
S1130AD016C0882311F096E911C0772321F09EE80F
S1130AE0872F762F05C0662371F096E8862F70E075
S1130AF060E02AF09A95660F771F881FDAF7880F4F
S1130B009695879597F9089557FD9058440F551F6A
S1130B1059F05F3F71F04795880F97FB991F61F07B
S1130B209F3F79F087950895121613061406551FF2
S1130B30F2CF4695F1DF08C0161617061806991F5E
S1130B40F1CF86957105610508940895E894BB2753
S1130B5066277727CB0197F908950E94C0050C9466
S1130B6031060E94230638F00E942A0620F09523BD
S1130B7011F00C941A060C94200611240C94A70569
S1130B800E94840570F3959FC1F3950F50E0551FA3
S1130B90629FF001729FBB27F00DB11D639FAA27CE
S1130BA0F00DB11DAA1F649F6627B00DA11D661F1D
S1130BB0829F2227B00DA11D621F739FB00DA11D3E
S1130BC0621F839FA00D611D221F749F3327A00DF8
S1130BD0611D231F849F600D211D822F762F6A2F94
S1130BE011249F5750409AF0F1F088234AF0EE0FF9
S1130BF0FF1FBB1F661F771F881F91505040A9F726
S1130C009E3F510580F00C941A060C94A7055F3F93
S1130C10E4F3983ED4F3869577956795B795F79561
S1130C20E7959F5FC1F7FE2B880F911D96958795D9
S1130C3097F9089597F99F6780E870E060E0089558
S1130C409FEF80EC089500240A94161617061806E0
S1130C500906089500240A941216130614060506BC
S1130C600895092E0394000C11F4882352F0BB0F4D
S1130C7040F4BF2B11F460FF04C06F5F7F4F8F4FB0
S1130C809F4F08954532510520F4423010F00C94E2
S1130C904D06FB011082CB010895BB274A3031F485
S1130CA0992322F4BDE2909581959F4F0C945906A7
S1130CB0BB27FB015527AA27880F991FAA1FA41732
S1130CC010F0A41B83955051B9F7A05DAA3308F026
S1130CD0A95DA193009779F7B111B1931192CB015A
S1130CE00C947206DC01FC01672F71917723E1F704
S1130CF0329704C07C916D9370836291AE17BF07E5
S10B0D00C8F30895F894FFCF35
S1130D081E0000400006001500A000210025000078
S1110D180002000105010154454D503D00004C
S9030000FC
