:100000000C942A000C9447000C9447000C94470071
:100010000C9436060C9447000C9447000C94E805A9
:100020000C940F060C9447000C94C1050C944700E7
:100030000C9447000C9447000C9447000C94470024
:100040000C94BA030C9447000C9447000C9447009E
:100050000C94470011241FBECFE5D8E0DEBFCDBF12
:1000600010E0A0E6B0E0E8E3F4E102C005900D92F4
:10007000A638B107D9F720E0A6E8B0E001C01D928C
:10008000A43DB207E1F70E94EC000C941A0A0C940C
:10009000000080916400813079F580918700882389
:1000A00019F08130A1F008958DE690E00E945B0286
:1000B00080916300813029F483E690E00E943F0143
:1000C00008951092630081E08093870008958091E5
:1000D0006200813039F462E670E08BE790E00E94C4
:1000E000C10108951092620082E08093870010920F
:1000F000640081E0809388000895809188008130B9
:10010000E9F480916100813049F441E650E060E01B
:1001100070E08AE890E00E943203089561E070E0A8
:1001200088E190E00E94F40388E10E948A0481E063
:1001300080936100809389001092880008958091D7
:100140008900813009F047C080918600882319F02A
:10015000813021F10895809160008130C9F460916F
:100160008A0070918B0080E090E00E94220921EDCE
:1001700032E243E050E40E9481080E94F308DC016F
:10018000CB0120E630E046E061E00E9424020895C1
:1001900081E08093600080938600089580916000E4
:1001A000813039F460E670E082E890E00E94C1019D
:1001B000089561E070E089E190E00E94F40389E134
:1001C0000E948A0481E080936000809388001092EE
:1001D00089001092860008950E94710620E030E0A8
:1001E00040E050E063E070E089E490E00E9489061E
:1001F00021E030E040E050E068EE73E08DE790E011
:100200000E94890622E030E040E050E063E070E0C8
:100210008FE990E00E9489060E948E0780E090E0BE
:10022000089590918F00913069F028F09230A1F0FC
:100230009330B9F00895D998DA98DB9A81E08093E9
:100240008F0008959BB39F70807F892B8BBBDB98B9
:1002500082E080938F000895DB9A83E080938F0083
:1002600008952BB32F7030E1839FC0011124822B9E
:100270008BBBDB9810928F00FB0110820895FC016C
:10028000909190009130E1F028F0923051F193304C
:10029000C9F108958AB3806F8ABBD19AD29AD39A52
:1002A00080916A00882331F06AE670E082E00E9463
:1002B0001101089581E080936A0080939000089571
:1002C00080916A00882331F06AE670E088E20E943B
:1002D0001101089581E080936A0082E0809390008C
:1002E000089580916A00882331F06AE670E08CE01E
:1002F0000E941101089581E080936A0083E0809359
:100300009000089580916A00882331F06AE670E0D9
:1003100081E00E941101089581E080936A001092AB
:1003200090001082089590918E00913069F028F02D
:100330009230A1F09330B9F00895D99ADA98DB9A07
:1003400081E080938E0008959BB39F70807F892BFE
:100350008BBBDB9882E080938E000895DB9A83E06C
:1003600080938E0008952BB32F7030E1839FC001DE
:100370001124822B8BBBDB98FB01108210928E0024
:10038000089520918D00820F911DFC0180818823AA
:1003900081F090916900913029F469E670E00E9443
:1003A0009301089581E0809369002F5F20938D0071
:1003B000089510928D00FB0110820895813019F08C
:1003C000823021F005C090E8960F02C090EC960FA5
:1003D00080916800813031F468E670E0892F0E94D6
:1003E0001101089581E080936800FA011082089558
:1003F000FC01762F642F90918C00992319F0913095
:1004000089F0089580916700882331F047E650E035
:10041000872F0E94DE01089581E08093670080931A
:100420008C00089580916600882331F066E670E0C4
:10043000CF010E94C101089581E08093660010926F
:100440008C00F90110820895EF92FF920F931F9391
:10045000CF93DF93CDB7DEB7A8970FB6F894DEBF82
:100460000FBECDBFF62EE42E89014AE050E0BE015A
:100470006F5F7F4F0E94DA0980916500813049F4F7
:1004800025E630E04E2D6F2DCE0101960E94F80139
:1004900005C081E080936500F8011082A8960FB630
:1004A000F894DEBF0FBECDBFDF91CF911F910F91AA
:1004B000FF90EF900895CF93DF93009709F4CAC09F
:1004C000EC013798379A888199818830910570F0CE
:1004D00061E070E08CE090E00E94F4038CE090E03A
:1004E0000E948A0481E08093960008C096B18095AE
:1004F000892386B997B18881892B87B98A819B81A5
:10050000813C910570F061E070E08DE090E00E9428
:10051000F4038DE090E00E948A0482E080939600CC
:1005200008C096B18095892386B997B18A81892BB5
:1005300087B98C819D81079770F061E070E08EE053
:1005400090E00E94F4038EE090E00E948A0483E031
:100550008093960007C086B1887F86B996B18C815A
:10056000892B86B98E819F818531910519F4359843
:10057000359A0FC0469769F061E070E08FE090E037
:100580000E94F4038FE090E00E948A0485E080934B
:10059000960088859985823E910570F061E070E053
:1005A00080E190E00E94F40380E190E00E948A04E0
:1005B00086E0809396000BC0813E910541F090B794
:1005C0008095892380BF90B78885892B80BF8A85D5
:1005D0009B858032910531F43D983D9A80E280936D
:1005E000940013C0819721F481E2809394000DC0A0
:1005F00061E070E081E190E00E94F40381E190E02D
:100600000E948A0487E0809396008C859D859C01DA
:10061000225231092430310570F061E070E082E14E
:1006200090E00E94F40382E190E00E948A048AE054
:100630008093960012C08232910519F0853291059F
:1006400031F4809395008FB780688FBF06C0809388
:10065000950003C089E08093960080919600DF9119
:10066000CF910895FC019091960091117DC08091E9
:1006700095008332E9F4369A349BFECF8091940042
:10068000803279F485B124B190E0880F991F880FEA
:10069000991F2295269526952370822B918380831E
:1006A00066C084B125B190E0922B918380835FC0B6
:1006B000843271F180916B00813029F43398339A40
:1006C000369A10926B006115710529F070939300B2
:1006D0006093920003C082E080936C00809194004C
:1006E000803279F485B124B190E0880F991F880F8A
:1006F000991F2295269526952370822B91838083BE
:1007000036C084B125B190E0922B918380832FC0B5
:1007100080919100882319F0813031F028C0369AF9
:1007200081E08093910023C080919400803279F41D
:1007300085B124B190E0880F991F880F991F2295E9
:10074000269526952370822B9183808306C084B1E1
:1007500025B190E0922B91838083369A81E080933B
:100760009100FA01108203C08FE180936C008091A8
:100770006C0008951F920F920FB60F9211242F93C1
:100780003F934F935F936F937F938F939F93AF9319
:10079000BF93EF93FF938091920090919300892BE8
:1007A00091F0E0919200F0919300099561E070E082
:1007B0008AE190E00E94F4038AE190E00E948A04BA
:1007C00088B7846088BFFF91EF91BF91AF919F91EF
:1007D0008F917F916F915F914F913F912F910F90EA
:1007E0000FBE0F901F901895803208F08FC0982F81
:1007F00097708695869586958F5B823451F118F4B3
:10080000813441F085C0833409F442C0843409F452
:100810005EC07EC061110FC04AB321E030E0B90173
:1008200002C0660F771F9A95E2F7CB01809584236B
:100830008ABB80E008954AB321E030E0B90102C0EC
:10084000660F771F9A95E2F7CB01842B8ABB80E075
:10085000089561110FC047B321E030E0B90102C033
:10086000660F771F9A95E2F7CB018095842387BBAB
:1008700080E0089547B321E030E0B90102C0660F7F
:10088000771F9A95E2F7CB01842B87BB80E0089510
:1008900061110FC044B321E030E0B90102C0660F1E
:1008A000771F9A95E2F7CB018095842384BB80E083
:1008B000089544B321E030E0B90102C0660F771F0C
:1008C0009A95E2F7CB01842B84BB80E008956111F7
:1008D0000FC041B321E030E0B90102C0660F771FBD
:1008E0009A95E2F7CB018095842381BB81E008953E
:1008F00041B321E030E0B90102C0660F771F9A953D
:10090000E2F7CB01842B81BB81E0089581E008955B
:1009100081E00895803208F049C0982F977086953D
:10092000869586958F5B8234B9F018F4813431F066
:100930003FC08334F9F0843459F13AC04BB321E01D
:1009400030E0B90102C0660F771F9A95E2F7CB013C
:1009500084278BBB80E0089548B321E030E0B901E3
:1009600002C0660F771F9A95E2F7CB01842788BBF8
:1009700080E0089545B321E030E0B90102C0660F80
:10098000771F9A95E2F7CB01842785BB80E0089515
:1009900042B321E030E0B90102C0660F771F9A959B
:1009A000E2F7CB01842782BB80E0089581E00895BF
:1009B00081E00895FC01892B09F447C09081292F1B
:1009C00030E0D901A156BF4F8C91813009F448C065
:1009D0009330E8F582818330E0F543814230D8F5E9
:1009E00051815830D0F5D901A156BF4F61E06C93C9
:1009F000D901AE55BF4F8C93D901AB55BF4F4C9326
:100A00008130D9F4913061F018F0923099F0089566
:100A100083B7886083BF93B78181892B83BF0DC063
:100A20008FB58FBD8EB588608EBD9EB58181892BB7
:100A30008EBD03C085B5582B55BD8381813079F4B7
:100A40008FB780688FBF80E0089580E0089581E0CF
:100A5000089581E0089581E0089581E0089580E09F
:100A60000895882321F0813009F47DC080C09091E1
:100A7000A200913009F45CC091112CC083B7826050
:100A800083BF8091A500811114C06115710509F41F
:100A900077C020E030E041E098B7926098BF4CBF4B
:100AA00008B601FEFDCF2F5F3F4F62177307A1F716
:100AB0000895813009F05DC088B7826088BF81E009
:100AC0008CBF89B7826089BF50939E0040939D0080
:100AD000892F0895923009F04EC083B7836083BF99
:100AE0008091A500811114C06115710509F448C0F9
:100AF00020E030E04DE798B7926098BF4CBF08B651
:100B000001FEFDCF2F5F3F4F62177307A1F70895D6
:100B1000813099F588B7826088BF8DE78CBF89B72F
:100B2000826089BF50939E0040939D0080E00895AD
:100B30008091A500811108C098B7926098BF6CBFE2
:100B400008B601FEFDCF08958130C9F488B78260F0
:100B500088BF6CBF89B7826089BF50939E00409365
:100B60009D0080E008957BBD6ABD80E0089581E02E
:100B70000895892F089580E0089580E0089580E029
:100B800008951F920F920FB60F9211242F933F9347
:100B90004F935F936F937F938F939F93AF93BF9385
:100BA000EF93FF93E0919D00F0919E000995FF91D6
:100BB000EF91BF91AF919F918F917F916F915F91D5
:100BC0004F913F912F910F900FBE0F901F9018954E
:100BD0001F920F920FB60F9211242F933F934F93B2
:100BE0005F936F937F938F939F93AF93BF93EF9395
:100BF000FF93E0919B00F0919C000995FF91EF918C
:100C0000BF91AF919F918F917F916F915F914F9124
:100C10003F912F910F900FBE0F901F9018951F922C
:100C20000F920FB60F9211242F933F934F935F9320
:100C30006F937F938F939F93AF93BF93EF93FF93A4
:100C4000E0919900F0919A000995FF91EF91BF9181
:100C5000AF919F918F917F916F915F914F913F9154
:100C60002F910F900FBE0F901F9018951F920F920B
:100C70000FB60F9211242F933F934F935F936F936F
:100C80007F938F939F93AF93BF93EF93FF93E091E5
:100C90009700F09198000995FF91EF91BF91AF9166
:100CA0009F918F917F916F915F914F913F912F9184
:100CB0000F900FBE0F901F9018958091A8009091F3
:100CC000A900A091AA00B091AB000196A11DB11D91
:100CD0008093A8009093A900A093AA00B093AB00C2
:100CE0000895CF93DF9300D000D0CDB7DEB719823F
:100CF0001A8282E08B8381E08C83CE0101960E9470
:100D0000DA0480E00F900F900F900F90DF91CF9159
:100D100008950F931F93A22F0091AC001091AD0086
:100D20002091AE003091AF0004301105210531054E
:100D300008F04BC0009709F44AC0F801EE0FFF1FFE
:100D4000E00FF11FEE0FFF1FEE0FFF1FE055FF4FEB
:100D50009387828742305105E0F5C801880F991FBB
:100D6000FC01E00FF11FEE0FFF1FEE0FFF1FE0551C
:100D7000FF4F4083FC01E00FF11FEE0FFF1FEE0F4E
:100D8000FF1FE055FF4FA1836115710521F1FC01A3
:100D9000E00FF11FEE0FFF1FEE0FFF1FE055FF4F9B
:100DA000CB01A0E0B0E082839383A483B5830F5F7F
:100DB0001F4F2F4F3F4F0093AC001093AD00209377
:100DC000AE003093AF0080E007C081E005C082E054
:100DD00003C084E001C086E01F910F9108958F92B7
:100DE0009F92AF92BF92CF92DF92EF92FF920F93BA
:100DF0001F93C090AC00D090AD00E090AE00F0909A
:100E0000AF00C114D104E104F10409F47BC0812CCA
:100E1000912C540140E0242F30E0F901EE0FFF1F28
:100E2000E20FF31FEE0FFF1FEE0FFF1FE055FF4F06
:100E3000228533852817390709F04FC097018601AD
:100E40000150110921093109081519052A053B0529
:100E5000D1F10093AC001093AD002093AE0030931D
:100E6000AF00C42ED12CE12CF12CC016D106E20625
:100E7000F30698F5E42FF0E0DF01AA0FBB1FAE0FD9
:100E8000BF1FAA0FBB1FAA0FBB1FA055BF4F319694
:100E9000BF01660F771FE60FF71FEE0FFF1FEE0F64
:100EA000FF1FE055FF4F5CE001900D925A95E1F76E
:100EB0004F5FC42ED12CE12CF12CC016D106E206D6
:100EC000F306C0F20AC08092AC009092AD00A092EE
:100ED000AE00B092AF0080E016C04F5F842E912C20
:100EE000A12CB12CC090AC00D090AD00E090AE0031
:100EF000F090AF008C149D04AE04BF0408F48BCFB7
:100F000080E001C083E01F910F91FF90EF90DF9090
:100F1000CF90BF90AF909F908F900895CF93DF9325
:100F2000CDB7DEB72C970FB6F894DEBF0FBECDBF9E
:100F30009924939481E0981285C0C090AC00D09021
:100F4000AD00E090AE00F090AF00C114D104E10418
:100F5000F10481F350E04FEF4C0D54170CF05CC0DE
:100F6000842F042E000C990B9C0121503109DC01C7
:100F7000AA0FBB1FA80FB91FAA0FBB1FAA0FBB1F29
:100F8000A055BF4FF901EE0FFF1FE20FF31FEE0F49
:100F9000FF1FEE0FFF1FE055FF4F11967C91119739
:100FA00061817617A8F5BC01660F771FFD011CE073
:100FB000DE01119601900D921A95E1F7DB01A80F61
:100FC000B91FAA0FBB1FAA0FBB1FA055BF4FC90156
:100FD000880F991FFC01E20FF31FEE0FFF1FEE0FAA
:100FE000FF1FE055FF4F6CE001900D926A95E1F70D
:100FF000DC01A20FB31FAA0FBB1FAA0FBB1FA05576
:10100000BF4F8CE0FE01319601900D928A95E1F779
:10101000415054170CF4A4CF5F5F852F052E000CB0
:10102000990BAA0BBB0B8C159D05AE05BF0508F4EB
:1010300092CF4DE556E060E070E080E00E9431051F
:10104000912C78CF911076CF8091AC009091AD002B
:10105000A091AE00B091AF00892B8A2B8B2B09F4A5
:1010600069CF4090A8005090A9006090AA007090AD
:10107000AB0000EB10E0C12CD12C7601F801868189
:101080009781A085B1859C01AD012F5F3F4F4F4FE8
:101090005F4F62817381848195810E94B0094616F9
:1010A000570668067906B9F40284F385E02D0995A0
:1010B000F80186819781A085B1850196A11DB11D9A
:1010C00086839783A087B1878081813021F48285D0
:1010D00093850E94EF06BFEFCB1ADB0AEB0AFB0AEF
:1010E000045F1F4F8091AC009091AD00A091AE00C5
:1010F000B091AF00C816D906EA06FB0608F4BECFC9
:1011000019CF0E9495080C9476090E946F0958F037
:101110000E94680940F029F45F3F29F00C945F09B0
:1011200051110C94AA090C9465090E94870968F36F
:101130009923B1F3552391F3951B550BBB27AA2790
:1011400062177307840738F09F5F5F4F220F331FCA
:10115000441FAA1FA9F335D00E2E3AF0E0E832D092
:1011600091505040E695001CCAF72BD0FE2F29D095
:10117000660F771F881FBB1F261737074807AB0767
:10118000B0E809F0BB0B802DBF01FF2793585F4FDC
:101190003AF09E3F510578F00C945F090C94AA092F
:1011A0005F3FE4F3983ED4F3869577956795B795BE
:1011B000F7959F5FC9F7880F911D9695879597F9C9
:1011C0000895E1E0660F771F881FBB1F6217730742
:1011D0008407BA0720F0621B730B840BBA0BEE1F57
:1011E00088F7E09508950E948F0988F09F5798F03E
:1011F000B92F9927B751B0F0E1F0660F771F881F1C
:10120000991F1AF0BA95C9F714C0B13091F00E9435
:10121000A909B1E008950C94A909672F782F8827B0
:10122000B85F39F0B93FCCF3869577956795B3955C
:10123000D9F73EF490958095709561957F4F8F4FCB
:101240009F4F0895E89409C097FB3EF490958095D0
:10125000709561957F4F8F4F9F4F9923A9F0F92F7C
:1012600096E9BB279395F695879577956795B795FA
:10127000F111F8CFFAF4BB0F11F460FF1BC06F5FE0
:101280007F4F8F4F9F4F16C0882311F096E911C0F2
:10129000772321F09EE8872F762F05C0662371F013
:1012A00096E8862F70E060E02AF09A95660F771F27
:1012B000881FDAF7880F9695879597F9089597F91B
:1012C0009F6780E870E060E008959FEF80EC0895EC
:1012D00000240A9416161706180609060895002415
:1012E0000A9412161306140605060895092E03948F
:1012F000000C11F4882352F0BB0F40F4BF2B11F403
:1013000060FF04C06F5F7F4F8F4F9F4F089557FD61
:101310009058440F551F59F05F3F71F04795880F63
:1013200097FB991F61F09F3F79F0879508951216FA
:1013300013061406551FF2CF4695F1DF08C01616A6
:1013400017061806991FF1CF869571056105089457
:101350000895E894BB2766277727CB0197F908956E
:10136000DB018F939F930E94C009BF91AF91A29F11
:10137000800D911DA39F900DB29F900D1124089593
:101380000E94CB09A59F900DB49F900DA49F800D46
:10139000911D11240895A29FB001B39FC001A39F86
:1013A000700D811D1124911DB29F700D811D11249E
:1013B000911D08954532510520F4423010F00C94EF
:1013C000E509FB011082CB010895BB274A3031F4B7
:1013D000992322F4BDE2909581959F4F0C94F109D9
:1013E000BB27FB015527AA27880F991FAA1FA417FF
:1013F00010F0A41B83955051B9F7A05DAA3308F0F3
:10140000A95DA193009779F7B111B1931192CB0126
:101410000C940A0ADC01FC01672F71917723E1F734
:10142000329704C07C916D9370836291AE17BF07B1
:08143000C8F30895F894FFCF02
:101438000101010101010101010101011E0000403A
:101448000006001600E100210024002054454D50FC
:061458003D00432E0000E0
:00000001FF
