:100000000C942A000C9447000C9447000C94470071
:100010000C941E060C9447000C9447000C94D005D9
:100020000C94F7050C9447000C94A9050C94470018
:100030000C9447000C9447000C9447000C94470024
:100040000C94A2030C9447000C9447000C944700B6
:100050000C94470011241FBECFE5D8E0DEBFCDBF12
:1000600010E0A0E6B0E0E4E8F4E102C005900D92F3
:10007000A439B107D9F720E0A4E9B0E001C01D928E
:10008000A13EB207E1F70E9420010C94400A0C94B3
:10009000000080919600813079F461E070E088E1A1
:1000A00090E00E94DC0388E10E947204369A81E0AD
:1000B0008093970010929600089561E070E087E1C8
:1000C00090E00E94DC0387E10E947204809163004B
:1000D000813081F580919500882319F08130D1F02D
:1000E000089580916200813079F482E690E00E9468
:1000F0007301809161008130E9F48DE690E00E9407
:100100009F0210926100089581E080939500809392
:100110006200089580916200813039F462E670E0F7
:100120008BE790E00E94F50108951092630081E052
:1001300080939600089580919700813009F07FC0E8
:1001400080919400823069F128F4882349F081304D
:10015000B1F00895833089F1843009F452C00895D4
:1001600080916000813029F480E690E00E9458027E
:10017000089581E0809360008093940008958091B9
:100180006000813039F460E670E089E890E00E9418
:10019000F501089581E08093600082E080939400EF
:1001A000089540E050E060E070E088E990E00E944F
:1001B0002C0383E080939400089580916000813047
:1001C000C9F4609198007091990080E090E00E94DD
:1001D000480921ED32E243E050E40E94A7080E9462
:1001E0001909DC01CB0120E630E045E061E00E9426
:1001F0006802089581E08093600084E08093940019
:10020000089580916000813039F460E670E08FE8F5
:1002100090E00E94F501089581E08093600092E0F3
:1002200090939400809396001092970061E070E0A4
:1002300089E190E00E94DC0389E10E947204089544
:100240000E94590620E030E040E050E063E070E0BA
:100250008DE590E00E94710621E030E040E050E042
:1002600068EE73E089E490E00E94710622E030E0DD
:1002700040E050E063E070E08BE990E00E9471069E
:100280000E94760780E090E0089590919D00913063
:1002900069F028F09230A1F09330B9F00895D99820
:1002A000DA98DB9A81E080939D0008959BB39F705C
:1002B000807F892B8BBBDB9882E080939D00089523
:1002C000DB9A83E080939D0008952BB32F7030E17B
:1002D000839FC0011124822B8BBBDB9810929D0061
:1002E000FB0110820895FC0190919E009130E1F095
:1002F00028F0923051F19330C9F108958AB3806F9C
:100300008ABBD19AD29AD39A80916A00882331F01D
:100310006AE670E082E00E944501089581E08093E2
:100320006A0080939E00089580916A00882331F0CE
:100330006AE670E088E20E944501089581E08093BA
:100340006A0082E080939E00089580916A0088236D
:1003500031F06AE670E08CE00E944501089581E08A
:1003600080936A0083E080939E00089580916A00E4
:10037000882331F06AE670E081E00E94450108952B
:1003800081E080936A0010929E00108208959091FF
:100390009C00913069F028F09230A1F09330B9F0D0
:1003A0000895D99ADA98DB9A81E080939C000895A9
:1003B0009BB39F70807F892B8BBBDB9882E08093FF
:1003C0009C000895DB9A83E080939C0008952BB3F2
:1003D0002F7030E1839FC0011124822B8BBBDB98EF
:1003E000FB01108210929C00089520919B00820FC7
:1003F000911DFC018081882381F0909169009130EA
:1004000029F469E670E00E94C701089581E08093B5
:1004100069002F5F20939B00089510929B00FB01C1
:1004200010820895813019F0823021F005C090E8E3
:10043000960F02C090EC960F80916800813031F4E5
:1004400068E670E0892F0E944501089581E080935D
:100450006800FA0110820895FC01762F642F9091B4
:100460009A00992319F0913089F0089580916700DE
:10047000882331F047E650E0872F0E94120208954A
:1004800081E08093670080939A00089580916600D0
:10049000882331F066E670E0CF010E94F5010895EF
:1004A00081E08093660010929A00F901108208950D
:1004B000FC0190916500992331F065E670E081E0E0
:1004C0000E944501089581E080936500108208959F
:1004D000EF92FF920F931F93CF93DF93CDB7DEB7C9
:1004E000A8970FB6F894DEBF0FBECDBFF62EE42E50
:1004F00089014AE050E0BE016F5F7F4F0E94000A11
:1005000080916400813049F424E630E04E2D6F2D57
:10051000CE0101960E942C0205C081E08093640008
:10052000F8011082A8960FB6F894DEBF0FBECDBFBB
:10053000DF91CF911F910F91FF90EF900895FC01F3
:10054000892B09F483C03798379A8081918188304C
:10055000910520F081E08093A30008C096B18095BA
:10056000892386B997B18081892B87B9828193814C
:10057000813C910520F082E08093A30008C096B1F1
:100580008095892386B997B18281892B87B9848127
:100590009581079720F083E08093A30007C086B180
:1005A000887F86B996B18481892B86B986819781A7
:1005B0008531910519F43598359A05C0469719F09B
:1005C00085E08093A30080859185823E910520F08F
:1005D00086E08093A3000BC0813E910541F090B767
:1005E0008095892380BF90B78085892B80BF8285C5
:1005F00093858032910531F43D983D9A80E2809355
:10060000A10009C0819721F481E28093A10003C079
:1006100087E08093A300848595859C01225231094F
:100620002430310520F08AE08093A30012C082328A
:10063000910519F08532910531F48093A2008FB7AE
:1006400080688FBF06C08093A20003C089E08093BA
:10065000A3008091A3000895FC019091A300911143
:100660006BC08091A2008332E9F4369A349BFECFAE
:100670008091A100803279F485B124B190E0880F97
:10068000991F880F991F2295269526952370822BF6
:100690009183808354C084B125B190E0922B9183E3
:1006A00080834DC0843271F180916B00813029F4D8
:1006B0003398339A369A10926B006115710529F0C0
:1006C0007093A00060939F0003C082E080936C0051
:1006D0008091A100803279F485B124B190E0880F37
:1006E000991F880F991F2295269526952370822B96
:1006F0009183808324C084B125B190E0922B9183B3
:1007000080831DC08091A100803279F485B124B12D
:1007100090E0880F991F880F991F2295269526959E
:100720002370822B918380830AC084B125B190E02D
:10073000922B9183808303C08FE180936C00809122
:100740006C0008951F920F920FB60F9211242F93F1
:100750003F934F935F936F937F938F939F93AF9349
:10076000BF93EF93FF9380919F009091A000892BFE
:1007700091F0E0919F00F091A000099561E070E098
:100780008AE190E00E94DC038AE190E00E9472041A
:1007900088B7846088BFFF91EF91BF91AF919F911F
:1007A0008F917F916F915F914F913F912F910F901A
:1007B0000FBE0F901F901895803208F08FC0982FB1
:1007C00097708695869586958F5B823451F118F4E3
:1007D000813441F085C0833409F442C0843409F483
:1007E0005EC07EC061110FC04AB321E030E0B901A4
:1007F00002C0660F771F9A95E2F7CB01809584239C
:100800008ABB80E008954AB321E030E0B90102C01C
:10081000660F771F9A95E2F7CB01842B8ABB80E0A5
:10082000089561110FC047B321E030E0B90102C063
:10083000660F771F9A95E2F7CB018095842387BBDB
:1008400080E0089547B321E030E0B90102C0660FAF
:10085000771F9A95E2F7CB01842B87BB80E0089540
:1008600061110FC044B321E030E0B90102C0660F4E
:10087000771F9A95E2F7CB018095842384BB80E0B3
:10088000089544B321E030E0B90102C0660F771F3C
:100890009A95E2F7CB01842B84BB80E00895611127
:1008A0000FC041B321E030E0B90102C0660F771FED
:1008B0009A95E2F7CB018095842381BB81E008956E
:1008C00041B321E030E0B90102C0660F771F9A956D
:1008D000E2F7CB01842B81BB81E0089581E008958C
:1008E00081E00895803208F049C0982F977086956E
:1008F000869586958F5B8234B9F018F4813431F097
:100900003FC08334F9F0843459F13AC04BB321E04D
:1009100030E0B90102C0660F771F9A95E2F7CB016C
:1009200084278BBB80E0089548B321E030E0B90113
:1009300002C0660F771F9A95E2F7CB01842788BB28
:1009400080E0089545B321E030E0B90102C0660FB0
:10095000771F9A95E2F7CB01842785BB80E0089545
:1009600042B321E030E0B90102C0660F771F9A95CB
:10097000E2F7CB01842782BB80E0089581E00895EF
:1009800081E00895FC01892B09F447C09081292F4B
:1009900030E0D901A455BF4F8C91813009F448C093
:1009A0009330E8F582818330E0F543814230D8F519
:1009B00051815830D0F5D901A455BF4F61E06C93F7
:1009C000D901A155BF4F8C93D901AE54BF4F4C9361
:1009D0008130D9F4913061F018F0923099F0089597
:1009E00083B7886083BF93B78181892B83BF0DC094
:1009F0008FB58FBD8EB588608EBD9EB58181892BE8
:100A00008EBD03C085B5582B55BD8381813079F4E7
:100A10008FB780688FBF80E0089580E0089581E0FF
:100A2000089581E0089581E0089581E0089580E0CF
:100A30000895882321F0813009F47DC080C0909111
:100A4000AF00913009F45CC091112CC083B7826073
:100A500083BF8091B200811114C06115710509F442
:100A600077C020E030E041E098B7926098BF4CBF7B
:100A700008B601FEFDCF2F5F3F4F62177307A1F746
:100A80000895813009F05DC088B7826088BF81E039
:100A90008CBF89B7826089BF5093AB004093AA0096
:100AA000892F0895923009F04EC083B7836083BFC9
:100AB0008091B200811114C06115710509F448C01C
:100AC00020E030E04DE798B7926098BF4CBF08B681
:100AD00001FEFDCF2F5F3F4F62177307A1F7089507
:100AE000813099F588B7826088BF8DE78CBF89B760
:100AF000826089BF5093AB004093AA0080E00895C4
:100B00008091B200811108C098B7926098BF6CBF05
:100B100008B601FEFDCF08958130C9F488B7826020
:100B200088BF6CBF89B7826089BF5093AB00409388
:100B3000AA0080E008957BBD6ABD80E0089581E051
:100B40000895892F089580E0089580E0089580E059
:100B500008951F920F920FB60F9211242F933F9377
:100B60004F935F936F937F938F939F93AF93BF93B5
:100B7000EF93FF93E091AA00F091AB000995FF91EC
:100B8000EF91BF91AF919F918F917F916F915F9105
:100B90004F913F912F910F900FBE0F901F9018957E
:100BA0001F920F920FB60F9211242F933F934F93E2
:100BB0005F936F937F938F939F93AF93BF93EF93C5
:100BC000FF93E091A800F091A9000995FF91EF91A2
:100BD000BF91AF919F918F917F916F915F914F9155
:100BE0003F912F910F900FBE0F901F9018951F925D
:100BF0000F920FB60F9211242F933F934F935F9351
:100C00006F937F938F939F93AF93BF93EF93FF93D4
:100C1000E091A600F091A7000995FF91EF91BF9197
:100C2000AF919F918F917F916F915F914F913F9184
:100C30002F910F900FBE0F901F9018951F920F923B
:100C40000FB60F9211242F933F934F935F936F939F
:100C50007F938F939F93AF93BF93EF93FF93E09115
:100C6000A400F091A5000995FF91EF91BF91AF917C
:100C70009F918F917F916F915F914F913F912F91B4
:100C80000F900FBE0F901F9018958091B500909116
:100C9000B600A091B700B091B8000196A11DB11D9A
:100CA0008093B5009093B600A093B700B093B800BE
:100CB0000895CF93DF9300D000D0CDB7DEB719826F
:100CC0001A8282E08B8381E08C83CE0101960E94A0
:100CD000C20480E00F900F900F900F90DF91CF91A2
:100CE00008950F931F93A22F0091B9001091BA009D
:100CF0002091BB003091BC00043011052105310565
:100D000008F04BC0009709F44AC0F801EE0FFF1F2E
:100D1000E00FF11FEE0FFF1FEE0FFF1FE354FF4F19
:100D20009387828742305105E0F5C801880F991FEB
:100D3000FC01E00FF11FEE0FFF1FEE0FFF1FE3544A
:100D4000FF4F4083FC01E00FF11FEE0FFF1FEE0F7E
:100D5000FF1FE354FF4FA1836115710521F1FC01D1
:100D6000E00FF11FEE0FFF1FEE0FFF1FE354FF4FC9
:100D7000CB01A0E0B0E082839383A483B5830F5FAF
:100D80001F4F2F4F3F4F0093B9001093BA0020938D
:100D9000BB003093BC0080E007C081E005C082E06A
:100DA00003C084E001C086E01F910F9108958F92E7
:100DB0009F92AF92BF92CF92DF92EF92FF920F93EA
:100DC0001F93C090B900D090BA00E090BB00F090A3
:100DD000BC00C114D104E104F10409F47BC0812CEE
:100DE000912C540140E0242F30E0F901EE0FFF1F59
:100DF000E20FF31FEE0FFF1FEE0FFF1FE354FF4F35
:100E0000228533852817390709F04FC097018601DD
:100E10000150110921093109081519052A053B0559
:100E2000D1F10093B9001093BA002093BB00309326
:100E3000BC00C42ED12CE12CF12CC016D106E20648
:100E4000F30698F5E42FF0E0DF01AA0FBB1FAE0F09
:100E5000BF1FAA0FBB1FAA0FBB1FA354BF4F3196C2
:100E6000BF01660F771FE60FF71FEE0FFF1FEE0F94
:100E7000FF1FE354FF4F5CE001900D925A95E1F79C
:100E80004F5FC42ED12CE12CF12CC016D106E20606
:100E9000F306C0F20AC08092B9009092BA00A09204
:100EA000BB00B092BC0080E016C04F5F842E912C36
:100EB000A12CB12CC090B900D090BA00E090BB003A
:100EC000F090BC008C149D04AE04BF0408F48BCFDA
:100ED00080E001C083E01F910F91FF90EF90DF90C1
:100EE000CF90BF90AF909F908F900895CF93DF9356
:100EF000CDB7DEB72C970FB6F894DEBF0FBECDBFCF
:100F000001E011E0312C01C0032D113009F085C042
:100F1000C090B900D090BA00E090BB00F090BC0047
:100F2000C114D104E104F10481F350E04FEF4C0D02
:100F300054170CF05CC0842F042E000C990B9C01FC
:100F400021503109DC01AA0FBB1FA80FB91FAA0F3E
:100F5000BB1FAA0FBB1FA354BF4FF901EE0FFF1F0A
:100F6000E20FF31FEE0FFF1FEE0FFF1FE354FF4FC3
:100F700011967C91119761817617A8F5BC01660FD7
:100F8000771FFD011CE0DE01119601900D921A956C
:100F9000E1F7DB01A80FB91FAA0FBB1FAA0FBB1FE8
:100FA000A354BF4FC901880F991FFC01E20FF31F23
:100FB000EE0FFF1FEE0FFF1FE354FF4F6CE0019099
:100FC0000D926A95E1F7DC01A20FB31FAA0FBB1FB8
:100FD000AA0FBB1FA354BF4F8CE0FE0131960190B6
:100FE0000D928A95E1F7415054170CF4A4CF5F5F3E
:100FF000852F052E000C990BAA0BBB0B8C159D059C
:10100000AE05BF0508F492CF45E456E060E070E01D
:10101000832D0E941905132D78CF111176CF809161
:10102000B9009091BA00A091BB00B091BC00892B8F
:101030008A2B8B2B09F469CF013009F07FC00F2E6A
:10104000FDEBAF2EF0E0BF2EF02DC12CD12C7601A0
:10105000D5011A96ED91FC911B970995BFEFCB1A1C
:10106000DB0AEB0AFB0A8091B9009091BA00A091CB
:10107000BB00B091BC00ECE0AE0EB11CC816D906A6
:10108000EA06FB0628F34090B5005090B600609049
:10109000B7007090B800892B8A2B8B2B09F434CFC2
:1010A000032D0F2EFDEBEF2EF0E0FF2EF02D812C07
:1010B000912C5401F70186819781A085B1859C010F
:1010C000AD012F5F3F4F4F4F5F4F6281738184812E
:1010D00095810E94D6094616570668067906B9F426
:1010E0000284F385E02D0995F70186819781A0851B
:1010F000B1850196A11DB11D86839783A087B18715
:101100008081813021F4828593850E94D706BFEFCC
:101110008B1A9B0AAB0ABB0AECE0EE0EF11C809125
:10112000B9009091BA00A091BB00B091BC008816A4
:101130009906AA06BB0608F4BDCFE7CE4090B500DD
:101140005090B6006090B7007090B800AACF0E948F
:10115000BB080C949C090E94950958F00E948E09C6
:1011600040F029F45F3F29F00C94850951110C944B
:10117000D0090C948B090E94AD0968F39923B1F34F
:10118000552391F3951B550BBB27AA2762177307AD
:10119000840738F09F5F5F4F220F331F441FAA1F41
:1011A000A9F335D00E2E3AF0E0E832D091505040FD
:1011B000E695001CCAF72BD0FE2F29D0660F771FAB
:1011C000881FBB1F261737074807AB07B0E809F091
:1011D000BB0B802DBF01FF2793585F4F3AF09E3F16
:1011E000510578F00C9485090C94D0095F3FE4F325
:1011F000983ED4F3869577956795B795F7959F5F59
:10120000C9F7880F911D9695879597F90895E1E0A4
:10121000660F771F881FBB1F621773078407BA0703
:1012200020F0621B730B840BBA0BEE1F88F7E0955E
:1012300008950E94B50988F09F5798F0B92F992713
:10124000B751B0F0E1F0660F771F881F991F1AF0B1
:10125000BA95C9F714C0B13091F00E94CF09B1E03E
:1012600008950C94CF09672F782F8827B85F39F03D
:10127000B93FCCF3869577956795B395D9F73EF44A
:1012800090958095709561957F4F8F4F9F4F0895F2
:10129000E89409C097FB3EF4909580957095619510
:1012A0007F4F8F4F9F4F9923A9F0F92F96E9BB27C6
:1012B0009395F695879577956795B795F111F8CF42
:1012C000FAF4BB0F11F460FF1BC06F5F7F4F8F4FAD
:1012D0009F4F16C0882311F096E911C0772321F0A3
:1012E0009EE8872F762F05C0662371F096E8862F3B
:1012F00070E060E02AF09A95660F771F881FDAF792
:10130000880F9695879597F9089597F99F6780E8D4
:1013100070E060E008959FEF80EC089500240A9447
:101320001616170618060906089500240A941216C0
:101330001306140605060895092E0394000C11F4F3
:10134000882352F0BB0F40F4BF2B11F460FF04C0A0
:101350006F5F7F4F8F4F9F4F089557FD9058440FF9
:10136000551F59F05F3F71F04795880F97FB991F04
:1013700061F09F3F79F087950895121613061406C1
:10138000551FF2CF4695F1DF08C01616170618064E
:10139000991FF1CF86957105610508940895E89429
:1013A000BB2766277727CB0197F90895DB018F9339
:1013B0009F930E94E609BF91AF91A29F800D911D5E
:1013C000A39F900DB29F900D112408950E94F109E2
:1013D000A59F900DB49F900DA49F800D911D112489
:1013E0000895A29FB001B39FC001A39F700D811DFE
:1013F0001124911DB29F700D811D1124911D08951E
:101400004532510520F4423010F00C940B0AFB01D8
:101410001082CB010895BB274A3031F4992322F47E
:10142000BDE2909581959F4F0C94170ABB27FB0155
:101430005527AA27880F991FAA1FA41710F0A41BCD
:1014400083955051B9F7A05DAA3308F0A95DA19327
:10145000009779F7B111B1931192CB010C94300A36
:10146000DC01FC01672F71917723E1F7329704C00B
:101470007C916D9370836291AE17BF07C8F3089596
:04148000F894FFCF0E
:101484000101010101010101010101011E000040EE
:101494000006001600E10021002400576169742051
:1014A400706C656173652E2E0054656D703D00434C
:0414B4002E200000E6
:00000001FF
