:100000000C942A000C9447000C9447000C94470071
:100010000C94DB050C9447000C9447000C948D0560
:100020000C94B4050C9447000C9466050C9447009E
:100030000C9447000C9447000C9447000C94470024
:100040000C945F030C9447000C9447000C944700F9
:100050000C94470011241FBECFE5D8E0DEBFCDBF12
:1000600010E0A0E6B0E0E2E8F3E102C005900D92F6
:10007000A438B107D9F720E0A4E8B0E001C01D9290
:10008000A03DB207E1F70E94ED000C94BF090C946B
:100090000000809163008130E1F480916200813042
:1000A00079F482E690E00E94400180916100813005
:1000B00081F48CE690E00E945C0210926100089549
:1000C000109263001092620081E08093850010928C
:1000D0008600089580918500813079F461E070E0B8
:1000E00088E190E00E94990388E10E942F04369AEB
:1000F00081E08093860010928500089580918600AB
:10010000813009F069C0809184008130C1F030F005
:10011000823009F1833009F442C008958091600073
:10012000813039F460E670E08AE790E00E94C20115
:10013000089581E08093600080938400089540E0FA
:1001400050E060E070E087E890E00E94E90282E021
:10015000809384000895809160008130C9F460919B
:1001600087007091880080E090E00E94C70821ED30
:1001700032E243E050E40E9426080E949808DC0125
:10018000CB0120E630E045E061E00E9425020895C1
:1001900081E08093600083E08093840008958091E3
:1001A0006000813039F460E670E080E890E00E9401
:1001B000C201089561E070E089E190E00E94990336
:1001C00089E10E942F0481E0809360008093840085
:1001D000809385001092860008950E94160620E004
:1001E00030E040E050E063E070E089E490E00E949D
:1001F0002E0621E030E040E050E068EE73E08AE651
:1002000090E00E942E0622E030E040E050E063E003
:1002100070E08EE790E00E942E060E94330780E097
:1002200090E0089590918C00913069F028F0923020
:10023000A1F09330B9F00895D998DA98DB9A81E06B
:1002400080938C0008959BB39F70807F892B8BBB1C
:10025000DB9882E080938C000895DB9A83E08093A2
:100260008C0008952BB32F7030E1839FC0011124BF
:10027000822B8BBBDB9810928C00FB0110820895BF
:10028000FC0190918D009130E1F028F0923051F115
:100290009330C9F108958AB3806F8ABBD19AD29AFC
:1002A000D39A80916900882331F069E670E082E09A
:1002B0000E941201089581E08093690080938D006F
:1002C000089580916900882331F069E670E088E242
:1002D0000E941201089581E08093690082E080937A
:1002E0008D00089580916900882331F069E670E0FF
:1002F0008CE00E941201089581E08093690083E000
:1003000080938D00089580916900882331F069E61B
:1003100070E081E00E941201089581E080936900FD
:1003200010928D001082089590918B00913069F0A9
:1003300028F09230A1F09330B9F00895D99ADA9864
:10034000DB9A81E080938B0008959BB39F70807F40
:10035000892B8BBBDB9882E080938B000895DB9A1E
:1003600083E080938B0008952BB32F7030E1839F3F
:10037000C0011124822B8BBBDB98FB0110821092F1
:100380008B00089520918A00820F911DFC018081CD
:10039000882381F090916800913029F468E670E03C
:1003A0000E949401089581E0809368002F5F20935C
:1003B0008A00089510928A00FB011082089581300E
:1003C00019F0823021F005C090E8960F02C090EC41
:1003D000960F80916700813031F467E670E0892FD5
:1003E0000E941201089581E080936700FA01108253
:1003F0000895FC01762F642F90918900992319F0BC
:10040000913089F0089580916600882331F046E6A6
:1004100050E0872F0E94DF01089581E080936600FD
:1004200080938900089580916500882331F065E606
:1004300070E0CF010E94C201089581E080936500C1
:1004400010928900F90110820895EF92FF920F93A4
:100450001F93CF93DF93CDB7DEB7A8970FB6F8946D
:10046000DEBF0FBECDBFF62EE42E89014AE050E07C
:10047000BE016F5F7F4F0E947F09809164008130D1
:1004800049F424E630E04E2D6F2DCE0101960E94F6
:10049000F90105C081E080936400F8011082A896FC
:1004A0000FB6F894DEBF0FBECDBFDF91CF911F9185
:1004B0000F91FF90EF900895FC01892B09F483C000
:1004C0003798379A808191818830910520F081E0BA
:1004D0008093920008C096B18095892386B997B120
:1004E0008081892B87B982819381813C910520F09D
:1004F00082E08093920008C096B18095892386B9E6
:1005000097B18281892B87B984819581079720F0E3
:1005100083E08093920007C086B1887F86B996B148
:100520008481892B86B9868197818531910519F45B
:100530003598359A05C0469719F085E0809392006A
:1005400080859185823E910520F086E0809392001F
:100550000BC0813E910541F090B78095892380BF03
:1005600090B78085892B80BF8285938580329105E5
:1005700031F43D983D9A80E28093900009C08197C4
:1005800021F481E28093900003C087E08093920081
:10059000848595859C01225231092430310520F053
:1005A0008AE08093920012C08232910519F0853260
:1005B000910531F4809391008FB780688FBF06C09A
:1005C0008093910003C089E0809392008091920013
:1005D0000895FC019091920091116BC0809191005F
:1005E0008332E9F4369A349BFECF809190008032BA
:1005F00079F485B124B190E0880F991F880F991F75
:100600002295269526952370822B9183808354C052
:1006100084B125B190E0922B918380834DC08432C8
:1006200071F180916A00813029F43398339A369AB7
:1006300010926A006115710529F070938F00609324
:100640008E0003C082E080936B0080919000803226
:1006500079F485B124B190E0880F991F880F991F14
:100660002295269526952370822B9183808324C022
:1006700084B125B190E0922B918380831DC080913D
:100680009000803279F485B124B190E0880F991FF1
:10069000880F991F2295269526952370822B91838A
:1006A00080830AC084B125B190E0922B918380832E
:1006B00003C08FE180936B0080916B0008951F92BF
:1006C0000F920FB60F9211242F933F934F935F9386
:1006D0006F937F938F939F93AF93BF93EF93FF930A
:1006E00080918E0090918F00892B91F0E0918E0087
:1006F000F0918F00099561E070E08AE190E00E943E
:1007000099038AE190E00E942F0488B7846088BF33
:10071000FF91EF91BF91AF919F918F917F916F91D9
:100720005F914F913F912F910F900FBE0F901F90AF
:100730001895803208F08FC0982F9770869586950F
:1007400086958F5B823451F118F4813441F085C075
:10075000833409F442C0843409F45EC07EC0611160
:100760000FC04AB321E030E0B90102C0660F771F25
:100770009A95E2F7CB01809584238ABB80E00895A7
:100780004AB321E030E0B90102C0660F771F9A95A5
:10079000E2F7CB01842B8ABB80E0089561110FC082
:1007A00047B321E030E0B90102C0660F771F9A9588
:1007B000E2F7CB018095842387BB80E0089547B39F
:1007C00021E030E0B90102C0660F771F9A95E2F789
:1007D000CB01842B87BB80E0089561110FC044B327
:1007E00021E030E0B90102C0660F771F9A95E2F769
:1007F000CB018095842384BB80E0089544B321E03D
:1008000030E0B90102C0660F771F9A95E2F7CB017D
:10081000842B84BB80E0089561110FC041B321E0B7
:1008200030E0B90102C0660F771F9A95E2F7CB015D
:100830008095842381BB81E0089541B321E030E0BD
:10084000B90102C0660F771F9A95E2F7CB01842B9E
:1008500081BB81E0089581E0089581E008958032B0
:1008600008F049C0982F97708695869586958F5B7E
:100870008234B9F018F4813431F03FC08334F9F098
:10088000843459F13AC04BB321E030E0B90102C0E1
:10089000660F771F9A95E2F7CB0184278BBB80E028
:1008A000089548B321E030E0B90102C0660F771F18
:1008B0009A95E2F7CB01842788BB80E0089545B381
:1008C00021E030E0B90102C0660F771F9A95E2F788
:1008D000CB01842785BB80E0089542B321E030E05E
:1008E000B90102C0660F771F9A95E2F7CB01842702
:1008F00082BB80E0089581E0089581E00895FC01C5
:10090000892B09F447C09081292F30E0D901A556E1
:10091000BF4F8C91813009F448C09330E8F5828153
:100920008330E0F543814230D8F551815830D0F51D
:10093000D901A556BF4F61E06C93D901A256BF4FB4
:100940008C93D901AF55BF4F4C938130D9F491307E
:1009500061F018F0923099F0089583B7886083BFF2
:1009600093B78181892B83BF0DC08FB58FBD8EB5A5
:1009700088608EBD9EB58181892B8EBD03C085B5F3
:10098000582B55BD8381813079F48FB780688FBF34
:1009900080E0089580E0089581E0089581E0089561
:1009A00081E0089581E0089580E00895882321F092
:1009B000813009F47DC080C090919E00913009F48F
:1009C0005CC091112CC083B7826083BF8091A1006D
:1009D000811114C06115710509F477C020E030E081
:1009E00041E098B7926098BF4CBF08B601FEFDCFBA
:1009F0002F5F3F4F62177307A1F70895813009F009
:100A00005DC088B7826088BF81E08CBF89B7826093
:100A100089BF50939A0040939900892F089592308E
:100A200009F04EC083B7836083BF8091A10081111C
:100A300014C06115710509F448C020E030E04DE7AD
:100A400098B7926098BF4CBF08B601FEFDCF2F5FEC
:100A50003F4F62177307A1F70895813099F588B762
:100A6000826088BF8DE78CBF89B7826089BF509351
:100A70009A004093990080E008958091A10081112F
:100A800008C098B7926098BF6CBF08B601FEFDCF52
:100A900008958130C9F488B7826088BF6CBF89B778
:100AA000826089BF50939A004093990080E0089536
:100AB0007BBD6ABD80E0089581E00895892F089587
:100AC00080E0089580E0089580E008951F920F92DD
:100AD0000FB60F9211242F933F934F935F936F9311
:100AE0007F938F939F93AF93BF93EF93FF93E09187
:100AF0009900F0919A000995FF91EF91BF91AF9104
:100B00009F918F917F916F915F914F913F912F9125
:100B10000F900FBE0F901F9018951F920F920FB657
:100B20000F9211242F933F934F935F936F937F9373
:100B30008F939F93AF93BF93EF93FF93E0919700B1
:100B4000F09198000995FF91EF91BF91AF919F911E
:100B50008F917F916F915F914F913F912F910F9066
:100B60000FBE0F901F9018951F920F920FB60F9205
:100B700011242F933F934F935F936F937F938F93A2
:100B80009F93AF93BF93EF93FF93E0919500F09104
:100B900096000995FF91EF91BF91AF919F918F9131
:100BA0007F916F915F914F913F912F910F900FBE69
:100BB0000F901F9018951F920F920FB60F9211244D
:100BC0002F933F934F935F936F937F938F939F9355
:100BD000AF93BF93EF93FF93E0919300F091940054
:100BE0000995FF91EF91BF91AF919F918F917F9167
:100BF0006F915F914F913F912F910F900FBE0F908A
:100C00001F9018958091A4009091A500A091A60036
:100C1000B091A7000196A11DB11D8093A4009093EF
:100C2000A500A093A600B093A7000895CF93DF93EB
:100C300000D000D0CDB7DEB719821A8282E08B8354
:100C400081E08C83CE0101960E947F0480E00F90AA
:100C50000F900F900F90DF91CF9108950F931F93F6
:100C6000A22F0091A8001091A9002091AA00309114
:100C7000AB00043011052105310508F04BC0009789
:100C800009F44AC0F801EE0FFF1FE00FF11FEE0F4D
:100C9000FF1FEE0FFF1FE455FF4F938782874230FF
:100CA0005105E0F5C801880F991FFC01E00FF11F05
:100CB000EE0FFF1FEE0FFF1FE455FF4F4083FC01B7
:100CC000E00FF11FEE0FFF1FEE0FFF1FE455FF4F68
:100CD000A1836115710521F1FC01E00FF11FEE0FF9
:100CE000FF1FEE0FFF1FE455FF4FCB01A0E0B0E068
:100CF00082839383A483B5830F5F1F4F2F4F3F4F92
:100D00000093A8001093A9002093AA003093AB0091
:100D100080E007C081E005C082E003C084E001C03C
:100D200086E01F910F9108958F929F92AF92BF928C
:100D3000CF92DF92EF92FF920F931F93C090A80083
:100D4000D090A900E090AA00F090AB00C114D104AB
:100D5000E104F10409F47BC0812C912C540140E0A2
:100D6000242F30E0F901EE0FFF1FE20FF31FEE0F0B
:100D7000FF1FEE0FFF1FE455FF4F22853385281715
:100D8000390709F04FC09701860101501109210967
:100D90003109081519052A053B05D1F10093A80072
:100DA0001093A9002093AA003093AB00C42ED12C3D
:100DB000E12CF12CC016D106E206F30698F5E42FDB
:100DC000F0E0DF01AA0FBB1FAE0FBF1FAA0FBB1FB2
:100DD000AA0FBB1FA455BF4F3196BF01660F771FE7
:100DE000E60FF71FEE0FFF1FEE0FFF1FE455FF4F3B
:100DF0005CE001900D925A95E1F74F5FC42ED12C23
:100E0000E12CF12CC016D106E206F306C0F20AC0AE
:100E10008092A8009092A900A092AA00B092AB0084
:100E200080E016C04F5F842E912CA12CB12CC09075
:100E3000A800D090A900E090AA00F090AB008C141C
:100E40009D04AE04BF0408F48BCF80E001C083E0B2
:100E50001F910F91FF90EF90DF90CF90BF90AF90D8
:100E60009F908F900895CF93DF93CDB7DEB72C97E7
:100E70000FB6F894DEBF0FBECDBF9924939481E0E6
:100E8000981285C0C090A800D090A900E090AA0058
:100E9000F090AB00C114D104E104F10481F350E0FF
:100EA0004FEF4C0D54170CF05CC0842F042E000C37
:100EB000990B9C0121503109DC01AA0FBB1FA80F1F
:100EC000B91FAA0FBB1FAA0FBB1FA455BF4FF90123
:100ED000EE0FFF1FE20FF31FEE0FFF1FEE0FFF1FBE
:100EE000E455FF4F11967C91119761817617A8F513
:100EF000BC01660F771FFD011CE0DE011196019019
:100F00000D921A95E1F7DB01A80FB91FAA0FBB1FBD
:100F1000AA0FBB1FA455BF4FC901880F991FFC0121
:100F2000E20FF31FEE0FFF1FEE0FFF1FE455FF4F01
:100F30006CE001900D926A95E1F7DC01A20FB31FFE
:100F4000AA0FBB1FAA0FBB1FA455BF4F8CE0FE0109
:100F5000319601900D928A95E1F7415054170CF4A7
:100F6000A4CF5F5F852F052E000C990BAA0BBB0B3E
:100F70008C159D05AE05BF0508F492CF42E056E002
:100F800060E070E080E00E94D604912C78CF911050
:100F900076CF8091A8009091A900A091AA00B0916D
:100FA000AB00892B8A2B8B2B09F469CF4090A400CE
:100FB0005090A5006090A6007090A7000CEA10E089
:100FC000C12CD12C7601F80186819781A085B1854D
:100FD0009C01AD012F5F3F4F4F4F5F4F6281738187
:100FE000848195810E945509461657066806790640
:100FF000B9F40284F385E02D0995F8018681978183
:10100000A085B1850196A11DB11D86839783A08718
:10101000B1878081813021F4828593850E94940676
:10102000BFEFCB1ADB0AEB0AFB0A045F1F4F80916C
:10103000A8009091A900A091AA00B091AB00C81699
:10104000D906EA06FB0608F4BECF19CF0E943A087B
:101050000C941B090E94140958F00E940D0940F0DD
:1010600029F45F3F29F00C94040951110C944F09A5
:101070000C940A090E942C0968F39923B1F35523B3
:1010800091F3951B550BBB27AA276217730784079B
:1010900038F09F5F5F4F220F331F441FAA1FA9F331
:1010A00035D00E2E3AF0E0E832D091505040E6951F
:1010B000001CCAF72BD0FE2F29D0660F771F881F80
:1010C000BB1F261737074807AB07B0E809F0BB0B73
:1010D000802DBF01FF2793585F4F3AF09E3F510587
:1010E00078F00C9404090C944F095F3FE4F3983EA8
:1010F000D4F3869577956795B795F7959F5FC9F770
:10110000880F911D9695879597F90895E1E0660FF0
:10111000771F881FBB1F621773078407BA0720F069
:10112000621B730B840BBA0BEE1F88F7E0950895D2
:101130000E94340988F09F5798F0B92F9927B7512A
:10114000B0F0E1F0660F771F881F991F1AF0BA956B
:10115000C9F714C0B13091F00E944E09B1E0089572
:101160000C944E09672F782F8827B85F39F0B93F64
:10117000CCF3869577956795B395D9F73EF490951E
:101180008095709561957F4F8F4F9F4F0895E8949C
:1011900009C097FB3EF490958095709561957F4FBF
:1011A0008F4F9F4F9923A9F0F92F96E9BB2793956D
:1011B000F695879577956795B795F111F8CFFAF47D
:1011C000BB0F11F460FF1BC06F5F7F4F8F4F9F4FAE
:1011D00016C0882311F096E911C0772321F09EE80C
:1011E000872F762F05C0662371F096E8862F70E072
:1011F00060E02AF09A95660F771F881FDAF7880F4C
:101200009695879597F9089597F99F6780E870E01C
:1012100060E008959FEF80EC089500240A9416166C
:10122000170618060906089500240A9412161306D4
:10123000140605060895092E0394000C11F4882362
:1012400052F0BB0F40F4BF2B11F460FF04C06F5F7E
:101250007F4F8F4F9F4F089557FD9058440F551F54
:1012600059F05F3F71F04795880F97FB991F61F028
:101270009F3F79F087950895121613061406551F9F
:10128000F2CF4695F1DF08C0161617061806991F0B
:10129000F1CF86957105610508940895E894BB2700
:1012A00066277727CB0197F90895DB018F939F93EA
:1012B0000E946509BF91AF91A29F800D911DA39FD0
:1012C000900DB29F900D112408950E947009A59F62
:1012D000900DB49F900DA49F800D911D1124089531
:1012E000A29FB001B39FC001A39F700D811D112467
:1012F000911DB29F700D811D1124911D08954532DD
:10130000510520F4423010F00C948A09FB01108240
:10131000CB010895BB274A3031F4992322F4BDE272
:10132000909581959F4F0C949609BB27FB015527FB
:10133000AA27880F991FAA1FA41710F0A41B839532
:101340005051B9F7A05DAA3308F0A95DA1930097A9
:1013500079F7B111B1931192CB010C94AF09DC0173
:10136000FC01672F71917723E1F7329704C07C91DC
:101370006D9370836291AE17BF07C8F30895F89418
:02138000FFCF9D
:1013820001010101010101010101011E00004000F2
:1013920006001600E1002100240054454D503D0096
:0413A200432E0000D6
:00000001FF
